{
  "_format": "hh-sol-artifact-1",
  "contractName": "Ticketing",
  "sourceName": "contracts/Ticketing.sol",
  "abi": [
    {
      "inputs": [
        {
          "internalType": "address",
          "name": "_account",
          "type": "address"
        }
      ],
      "stateMutability": "nonpayable",
      "type": "constructor"
    },
    {
      "anonymous": false,
      "inputs": [
        {
          "indexed": true,
          "internalType": "address",
          "name": "creator",
          "type": "address"
        },
        {
          "indexed": false,
          "internalType": "string",
          "name": "eventName",
          "type": "string"
        }
      ],
      "name": "event_created",
      "type": "event"
    },
    {
      "anonymous": false,
      "inputs": [
        {
          "indexed": true,
          "internalType": "address",
          "name": "creator",
          "type": "address"
        },
        {
          "indexed": false,
          "internalType": "string",
          "name": "eventName",
          "type": "string"
        }
      ],
      "name": "event_deleted",
      "type": "event"
    },
    {
      "anonymous": false,
      "inputs": [
        {
          "indexed": true,
          "internalType": "address",
          "name": "creator",
          "type": "address"
        },
        {
          "indexed": false,
          "internalType": "string",
          "name": "eventName",
          "type": "string"
        },
        {
          "indexed": false,
          "internalType": "uint256",
          "name": "timestamp",
          "type": "uint256"
        }
      ],
      "name": "fund_withdrawn",
      "type": "event"
    },
    {
      "anonymous": false,
      "inputs": [
        {
          "indexed": true,
          "internalType": "address",
          "name": "creator",
          "type": "address"
        },
        {
          "indexed": false,
          "internalType": "string",
          "name": "EventName",
          "type": "string"
        },
        {
          "indexed": false,
          "internalType": "uint256",
          "name": "timestamp",
          "type": "uint256"
        }
      ],
      "name": "ticketPriceChange",
      "type": "event"
    },
    {
      "anonymous": false,
      "inputs": [
        {
          "indexed": true,
          "internalType": "address",
          "name": "buyer",
          "type": "address"
        },
        {
          "indexed": false,
          "internalType": "string",
          "name": "eventName",
          "type": "string"
        }
      ],
      "name": "ticket_bought",
      "type": "event"
    },
    {
      "inputs": [
        {
          "internalType": "string",
          "name": "event_id",
          "type": "string"
        },
        {
          "internalType": "uint256",
          "name": "additional_tickets",
          "type": "uint256"
        }
      ],
      "name": "add_tickets",
      "outputs": [],
      "stateMutability": "nonpayable",
      "type": "function"
    },
    {
      "inputs": [
        {
          "internalType": "string",
          "name": "event_id",
          "type": "string"
        }
      ],
      "name": "availableTickets",
      "outputs": [
        {
          "internalType": "uint256",
          "name": "",
          "type": "uint256"
        }
      ],
      "stateMutability": "view",
      "type": "function"
    },
    {
      "inputs": [
        {
          "internalType": "string",
          "name": "event_id",
          "type": "string"
        },
        {
          "internalType": "uint64",
          "name": "requested_num_tickets",
          "type": "uint64"
        }
      ],
      "name": "buy_tickets",
      "outputs": [],
      "stateMutability": "payable",
      "type": "function"
    },
    {
      "inputs": [
        {
          "internalType": "uint8",
          "name": "num",
          "type": "uint8"
        }
      ],
      "name": "changeMaxTicketAmount",
      "outputs": [],
      "stateMutability": "nonpayable",
      "type": "function"
    },
    {
      "inputs": [
        {
          "internalType": "string",
          "name": "event_id",
          "type": "string"
        },
        {
          "internalType": "uint64",
          "name": "ticket_type",
          "type": "uint64"
        },
        {
          "internalType": "uint128",
          "name": "new_price",
          "type": "uint128"
        }
      ],
      "name": "change_ticket_price",
      "outputs": [],
      "stateMutability": "nonpayable",
      "type": "function"
    },
    {
      "inputs": [
        {
          "internalType": "string",
          "name": "_event_id",
          "type": "string"
        },
        {
          "internalType": "uint256",
          "name": "num_tickets",
          "type": "uint256"
        },
        {
          "internalType": "uint256",
          "name": "_ticket_prices",
          "type": "uint256"
        },
        {
          "internalType": "bool",
          "name": "_per_customer_limit",
          "type": "bool"
        },
        {
          "internalType": "uint64",
          "name": "_max_per_customer",
          "type": "uint64"
        },
        {
          "internalType": "uint256",
          "name": "_deadline",
          "type": "uint256"
        }
      ],
      "name": "createEvent",
      "outputs": [],
      "stateMutability": "nonpayable",
      "type": "function"
    },
    {
      "inputs": [
        {
          "internalType": "string",
          "name": "event_id",
          "type": "string"
        }
      ],
      "name": "delete_event",
      "outputs": [],
      "stateMutability": "nonpayable",
      "type": "function"
    },
    {
      "inputs": [
        {
          "internalType": "uint256",
          "name": "",
          "type": "uint256"
        }
      ],
      "name": "event_id_list",
      "outputs": [
        {
          "internalType": "string",
          "name": "",
          "type": "string"
        }
      ],
      "stateMutability": "view",
      "type": "function"
    },
    {
      "inputs": [
        {
          "internalType": "string",
          "name": "",
          "type": "string"
        }
      ],
      "name": "events",
      "outputs": [
        {
          "internalType": "address payable",
          "name": "owner",
          "type": "address"
        },
        {
          "internalType": "string",
          "name": "event_Id",
          "type": "string"
        },
        {
          "internalType": "uint256",
          "name": "ticket_prices",
          "type": "uint256"
        },
        {
          "internalType": "uint256",
          "name": "totalTickets",
          "type": "uint256"
        },
        {
          "internalType": "uint256",
          "name": "available_tickets",
          "type": "uint256"
        },
        {
          "internalType": "uint256",
          "name": "deadline",
          "type": "uint256"
        },
        {
          "internalType": "uint256",
          "name": "funds",
          "type": "uint256"
        },
        {
          "internalType": "uint256",
          "name": "index",
          "type": "uint256"
        },
        {
          "internalType": "bool",
          "name": "sale_active",
          "type": "bool"
        },
        {
          "internalType": "bool",
          "name": "exists",
          "type": "bool"
        },
        {
          "internalType": "bool",
          "name": "per_customer_limit",
          "type": "bool"
        },
        {
          "internalType": "uint64",
          "name": "max_per_customer",
          "type": "uint64"
        }
      ],
      "stateMutability": "view",
      "type": "function"
    },
    {
      "inputs": [
        {
          "internalType": "string",
          "name": "_id",
          "type": "string"
        },
        {
          "internalType": "address",
          "name": "_addr",
          "type": "address"
        }
      ],
      "name": "findIndex",
      "outputs": [
        {
          "internalType": "uint256",
          "name": "",
          "type": "uint256"
        }
      ],
      "stateMutability": "view",
      "type": "function"
    },
    {
      "inputs": [
        {
          "internalType": "uint256",
          "name": "",
          "type": "uint256"
        }
      ],
      "name": "genEvents",
      "outputs": [
        {
          "internalType": "address payable",
          "name": "owner",
          "type": "address"
        },
        {
          "internalType": "string",
          "name": "event_Id",
          "type": "string"
        },
        {
          "internalType": "uint256",
          "name": "ticket_prices",
          "type": "uint256"
        },
        {
          "internalType": "uint256",
          "name": "totalTickets",
          "type": "uint256"
        },
        {
          "internalType": "uint256",
          "name": "available_tickets",
          "type": "uint256"
        },
        {
          "internalType": "uint256",
          "name": "deadline",
          "type": "uint256"
        },
        {
          "internalType": "uint256",
          "name": "funds",
          "type": "uint256"
        },
        {
          "internalType": "uint256",
          "name": "index",
          "type": "uint256"
        },
        {
          "internalType": "bool",
          "name": "sale_active",
          "type": "bool"
        },
        {
          "internalType": "bool",
          "name": "exists",
          "type": "bool"
        },
        {
          "internalType": "bool",
          "name": "per_customer_limit",
          "type": "bool"
        },
        {
          "internalType": "uint64",
          "name": "max_per_customer",
          "type": "uint64"
        }
      ],
      "stateMutability": "view",
      "type": "function"
    },
    {
      "inputs": [
        {
          "internalType": "string",
          "name": "event_id",
          "type": "string"
        }
      ],
      "name": "getGenTickedId",
      "outputs": [
        {
          "internalType": "bytes32",
          "name": "",
          "type": "bytes32"
        }
      ],
      "stateMutability": "view",
      "type": "function"
    },
    {
      "inputs": [],
      "name": "getUserEvents",
      "outputs": [
        {
          "internalType": "string[]",
          "name": "",
          "type": "string[]"
        }
      ],
      "stateMutability": "view",
      "type": "function"
    },
    {
      "inputs": [
        {
          "internalType": "string",
          "name": "event_id",
          "type": "string"
        }
      ],
      "name": "get_customers",
      "outputs": [
        {
          "internalType": "address[]",
          "name": "",
          "type": "address[]"
        }
      ],
      "stateMutability": "view",
      "type": "function"
    },
    {
      "inputs": [
        {
          "internalType": "string",
          "name": "eventId",
          "type": "string"
        }
      ],
      "name": "get_event_info",
      "outputs": [
        {
          "internalType": "string",
          "name": "",
          "type": "string"
        },
        {
          "internalType": "uint256",
          "name": "deadline",
          "type": "uint256"
        },
        {
          "internalType": "uint256",
          "name": "available_tickets",
          "type": "uint256"
        },
        {
          "internalType": "uint64",
          "name": "max_per_customer",
          "type": "uint64"
        },
        {
          "internalType": "uint256",
          "name": "ticket_price",
          "type": "uint256"
        },
        {
          "internalType": "bool",
          "name": "sale_active",
          "type": "bool"
        },
        {
          "internalType": "bool",
          "name": "per_customer_limit",
          "type": "bool"
        }
      ],
      "stateMutability": "view",
      "type": "function"
    },
    {
      "inputs": [],
      "name": "get_events",
      "outputs": [
        {
          "internalType": "string[]",
          "name": "event_list",
          "type": "string[]"
        }
      ],
      "stateMutability": "view",
      "type": "function"
    },
    {
      "inputs": [
        {
          "internalType": "string",
          "name": "event_id",
          "type": "string"
        },
        {
          "internalType": "address",
          "name": "customer",
          "type": "address"
        }
      ],
      "name": "get_tickets",
      "outputs": [
        {
          "internalType": "uint256",
          "name": "",
          "type": "uint256"
        }
      ],
      "stateMutability": "view",
      "type": "function"
    },
    {
      "inputs": [],
      "name": "max_ticket_amount",
      "outputs": [
        {
          "internalType": "uint8",
          "name": "",
          "type": "uint8"
        }
      ],
      "stateMutability": "view",
      "type": "function"
    },
    {
      "inputs": [
        {
          "internalType": "string",
          "name": "event_id",
          "type": "string"
        }
      ],
      "name": "return_tickets",
      "outputs": [],
      "stateMutability": "nonpayable",
      "type": "function"
    },
    {
      "inputs": [
        {
          "internalType": "string",
          "name": "event_id",
          "type": "string"
        }
      ],
      "name": "view_funds",
      "outputs": [
        {
          "internalType": "uint256",
          "name": "current_funds",
          "type": "uint256"
        }
      ],
      "stateMutability": "view",
      "type": "function"
    },
    {
      "inputs": [
        {
          "internalType": "string",
          "name": "event_id",
          "type": "string"
        }
      ],
      "name": "withdraw_funds",
      "outputs": [],
      "stateMutability": "nonpayable",
      "type": "function"
    }
  ],
  "bytecode": "0x60806040526064600560006101000a81548160ff021916908360ff1602179055503480156200002d57600080fd5b5060405162004ca638038062004ca6833981810160405281019062000053919062000145565b806000806101000a81548173ffffffffffffffffffffffffffffffffffffffff021916908373ffffffffffffffffffffffffffffffffffffffff16021790555033600160006101000a81548173ffffffffffffffffffffffffffffffffffffffff021916908373ffffffffffffffffffffffffffffffffffffffff1602179055505062000177565b600080fd5b600073ffffffffffffffffffffffffffffffffffffffff82169050919050565b60006200010d82620000e0565b9050919050565b6200011f8162000100565b81146200012b57600080fd5b50565b6000815190506200013f8162000114565b92915050565b6000602082840312156200015e576200015d620000db565b5b60006200016e848285016200012e565b91505092915050565b614b1f80620001876000396000f3fe60806040526004361061012a5760003560e01c8063926766fc116100ab578063bf0c84491161006f578063bf0c844914610458578063c29d814614610481578063c429e160146104aa578063ed22acda146104c6578063ef5bb3f714610503578063f61007191461052c5761012a565b8063926766fc146103305780639673d6a31461036d578063a0d596c0146103b5578063b42b747e146103de578063be22f5081461041b5761012a565b806352359ab5116100f257806352359ab5146102335780635512d7dd146102705780635b36baaa146102995780635b3929cb146102c2578063685074f9146102ed5761012a565b80630f9775611461012f578063144f7bde1461015a578063152beddb146101975780633b98047b146101df5780633c3bf9da1461020a575b600080fd5b34801561013b57600080fd5b50610144610569565b60405161015191906133b9565b60405180910390f35b34801561016657600080fd5b50610181600480360381019061017c9190613524565b610682565b60405161018e9190613586565b60405180910390f35b3480156101a357600080fd5b506101be60048036038101906101b991906135cd565b6106ad565b6040516101d69c9b9a999897969594939291906136c3565b60405180910390f35b3480156101eb57600080fd5b506101f4610800565b60405161020191906137a0565b60405180910390f35b34801561021657600080fd5b50610231600480360381019061022c9190613524565b610813565b005b34801561023f57600080fd5b5061025a6004803603810190610255919061381b565b610b54565b6040516102679190613938565b60405180910390f35b34801561027c57600080fd5b5061029760048036038101906102929190613524565b610c06565b005b3480156102a557600080fd5b506102c060048036038101906102bb9190613986565b6110a8565b005b3480156102ce57600080fd5b506102d7611120565b6040516102e491906133b9565b60405180910390f35b3480156102f957600080fd5b50610314600480360381019061030f9190613524565b6111f9565b60405161032797969594939291906139b3565b60405180910390f35b34801561033c57600080fd5b506103576004803603810190610352919061381b565b611434565b6040516103649190613586565b60405180910390f35b34801561037957600080fd5b50610394600480360381019061038f9190613524565b61160b565b6040516103ac9c9b9a999897969594939291906136c3565b60405180910390f35b3480156103c157600080fd5b506103dc60048036038101906103d79190613524565b611764565b005b3480156103ea57600080fd5b5061040560048036038101906104009190613a55565b611a29565b6040516104129190613586565b60405180910390f35b34801561042757600080fd5b50610442600480360381019061043d9190613a55565b611b05565b60405161044f9190613586565b60405180910390f35b34801561046457600080fd5b5061047f600480360381019061047a9190613ab1565b611cc2565b005b34801561048d57600080fd5b506104a860048036038101906104a39190613b81565b611e1f565b005b6104c460048036038101906104bf9190613bf0565b611fea565b005b3480156104d257600080fd5b506104ed60048036038101906104e8919061381b565b612b15565b6040516104fa9190613c65565b60405180910390f35b34801561050f57600080fd5b5061052a60048036038101906105259190613cac565b612b83565b005b34801561053857600080fd5b50610553600480360381019061054e91906135cd565b612f60565b6040516105609190613d5b565b60405180910390f35b6060600660003373ffffffffffffffffffffffffffffffffffffffff1673ffffffffffffffffffffffffffffffffffffffff168152602001908152602001600020600001805480602002602001604051908101604052809291908181526020016000905b828210156106795783829060005260206000200180546105ec90613dac565b80601f016020809104026020016040519081016040528092919081815260200182805461061890613dac565b80156106655780601f1061063a57610100808354040283529160200191610665565b820191906000526020600020905b81548152906001019060200180831161064857829003601f168201915b5050505050815260200190600101906105cd565b50505050905090565b60006003826040516106949190613e1a565b9081526020016040518091039020600401549050919050565b600281815481106106bd57600080fd5b90600052602060002090600b02016000915090508060000160009054906101000a900473ffffffffffffffffffffffffffffffffffffffff169080600101805461070690613dac565b80601f016020809104026020016040519081016040528092919081815260200182805461073290613dac565b801561077f5780601f106107545761010080835404028352916020019161077f565b820191906000526020600020905b81548152906001019060200180831161076257829003601f168201915b5050505050908060020154908060030154908060040154908060050154908060060154908060070154908060080160009054906101000a900460ff16908060080160019054906101000a900460ff16908060080160029054906101000a900460ff16908060080160039054906101000a900467ffffffffffffffff1690508c565b600560009054906101000a900460ff1681565b806003816040516108249190613e1a565b908152602001604051809103902060080160019054906101000a900460ff16610882576040517f08c379a000000000000000000000000000000000000000000000000000000000815260040161087990613e7d565b60405180910390fd5b813373ffffffffffffffffffffffffffffffffffffffff166003826040516108aa9190613e1a565b908152602001604051809103902060000160009054906101000a900473ffffffffffffffffffffffffffffffffffffffff1673ffffffffffffffffffffffffffffffffffffffff1614610932576040517f08c379a000000000000000000000000000000000000000000000000000000000815260040161092990613f0f565b60405180910390fd5b60006003846040516109449190613e1a565b90815260200160405180910390206007015490506003846040516109689190613e1a565b9081526020016040518091039020600080820160006101000a81549073ffffffffffffffffffffffffffffffffffffffff02191690556001820160006109ae9190613047565b6002820160009055600382016000905560048201600090556005820160009055600682016000905560078201600090556008820160006101000a81549060ff02191690556008820160016101000a81549060ff02191690556008820160026101000a81549060ff02191690556008820160036101000a81549067ffffffffffffffff0219169055600a82016000610a459190613087565b505080600360046001600480549050610a5e9190613f5e565b81548110610a6f57610a6e613f92565b5b90600052602060002001604051610a869190614055565b90815260200160405180910390206007018190555060046001600480549050610aaf9190613f5e565b81548110610ac057610abf613f92565b5b9060005260206000200160048281548110610ade57610add613f92565b5b90600052602060002001908054610af490613dac565b610aff9291906130a8565b5060046001600480549050610b149190613f5e565b81548110610b2557610b24613f92565b5b906000526020600020016000610b3b9190613047565b6001600480549050610b4d9190613f5e565b5050505050565b606060038383604051610b68929190614091565b9081526020016040518091039020600a01805480602002602001604051908101604052809291908181526020018280548015610bf957602002820191906000526020600020905b8160009054906101000a900473ffffffffffffffffffffffffffffffffffffffff1673ffffffffffffffffffffffffffffffffffffffff1681526020019060010190808311610baf575b5050505050905092915050565b8042600382604051610c189190613e1a565b90815260200160405180910390206005015411610c6a576040517f08c379a0000000000000000000000000000000000000000000000000000000008152600401610c61906140f6565b60405180910390fd5b6000600383604051610c7c9190613e1a565b908152602001604051809103902060090160003373ffffffffffffffffffffffffffffffffffffffff1673ffffffffffffffffffffffffffffffffffffffff16815260200190815260200160002060010160159054906101000a900467ffffffffffffffff1667ffffffffffffffff1611610d2c576040517f08c379a0000000000000000000000000000000000000000000000000000000008152600401610d2390614188565b60405180910390fd5b600382604051610d3c9190613e1a565b908152602001604051809103902060080160009054906101000a900460ff16610d9a576040517f08c379a0000000000000000000000000000000000000000000000000000000008152600401610d919061421a565b60405180910390fd5b6000600383604051610dac9190613e1a565b908152602001604051809103902060090160003373ffffffffffffffffffffffffffffffffffffffff1673ffffffffffffffffffffffffffffffffffffffff16815260200190815260200160002060020160009054906101000a90046fffffffffffffffffffffffffffffffff166fffffffffffffffffffffffffffffffff169050600383604051610e3e9190613e1a565b908152602001604051809103902060090160003373ffffffffffffffffffffffffffffffffffffffff1673ffffffffffffffffffffffffffffffffffffffff16815260200190815260200160002060030154600384604051610ea09190613e1a565b90815260200160405180910390206004016000828254610ec0919061423a565b9250508190555080600384604051610ed89190613e1a565b90815260200160405180910390206006016000828254610ef89190613f5e565b925050819055506000610f0b8433611b05565b905060405180602001604052806000815250600660003373ffffffffffffffffffffffffffffffffffffffff1673ffffffffffffffffffffffffffffffffffffffff1681526020019081526020016000206000018281548110610f7157610f70613f92565b5b906000526020600020019080519060200190610f8e929190613135565b506000801b600660003373ffffffffffffffffffffffffffffffffffffffff1673ffffffffffffffffffffffffffffffffffffffff16815260200190815260200160002060010185604051610fe39190613e1a565b90815260200160405180910390208190555060003373ffffffffffffffffffffffffffffffffffffffff168360405161101b906142c1565b60006040518083038185875af1925050503d8060008114611058576040519150601f19603f3d011682016040523d82523d6000602084013e61105d565b606091505b50509050806110a1576040517f08c379a000000000000000000000000000000000000000000000000000000000815260040161109890614348565b60405180910390fd5b5050505050565b600160009054906101000a900473ffffffffffffffffffffffffffffffffffffffff1673ffffffffffffffffffffffffffffffffffffffff163373ffffffffffffffffffffffffffffffffffffffff161461110257600080fd5b80600560006101000a81548160ff021916908360ff16021790555050565b60606004805480602002602001604051908101604052809291908181526020016000905b828210156111f057838290600052602060002001805461116390613dac565b80601f016020809104026020016040519081016040528092919081815260200182805461118f90613dac565b80156111dc5780601f106111b1576101008083540402835291602001916111dc565b820191906000526020600020905b8154815290600101906020018083116111bf57829003601f168201915b505050505081526020019060010190611144565b50505050905090565b6060600080600080600080876003816040516112159190613e1a565b908152602001604051809103902060080160019054906101000a900460ff16611273576040517f08c379a000000000000000000000000000000000000000000000000000000000815260040161126a90613e7d565b60405180910390fd5b6003896040516112839190613e1a565b908152602001604051809103902060010160038a6040516112a49190613e1a565b90815260200160405180910390206005015460038b6040516112c69190613e1a565b90815260200160405180910390206004015460038c6040516112e89190613e1a565b908152602001604051809103902060080160039054906101000a900467ffffffffffffffff1660038d60405161131e9190613e1a565b90815260200160405180910390206002015460038e6040516113409190613e1a565b908152602001604051809103902060080160009054906101000a900460ff1660038f60405161136f9190613e1a565b908152602001604051809103902060080160029054906101000a900460ff1686805461139a90613dac565b80601f01602080910402602001604051908101604052809291908181526020018280546113c690613dac565b80156114135780601f106113e857610100808354040283529160200191611413565b820191906000526020600020905b8154815290600101906020018083116113f657829003601f168201915b50505050509650975097509750975097509750975050919395979092949650565b600082828080601f016020809104026020016040519081016040528093929190818152602001838380828437600081840152601f19601f8201169050808301925050505050505060038160405161148b9190613e1a565b908152602001604051809103902060080160019054906101000a900460ff166114e9576040517f08c379a00000000000000000000000000000000000000000000000000000000081526004016114e090613e7d565b60405180910390fd5b83838080601f016020809104026020016040519081016040528093929190818152602001838380828437600081840152601f19601f820116905080830192505050505050503373ffffffffffffffffffffffffffffffffffffffff166003826040516115559190613e1a565b908152602001604051809103902060000160009054906101000a900473ffffffffffffffffffffffffffffffffffffffff1673ffffffffffffffffffffffffffffffffffffffff16146115dd576040517f08c379a00000000000000000000000000000000000000000000000000000000081526004016115d490613f0f565b60405180910390fd5b600385856040516115ef929190614091565b9081526020016040518091039020600601549250505092915050565b6003818051602081018201805184825260208301602085012081835280955050505050506000915090508060000160009054906101000a900473ffffffffffffffffffffffffffffffffffffffff169080600101805461166a90613dac565b80601f016020809104026020016040519081016040528092919081815260200182805461169690613dac565b80156116e35780601f106116b8576101008083540402835291602001916116e3565b820191906000526020600020905b8154815290600101906020018083116116c657829003601f168201915b5050505050908060020154908060030154908060040154908060050154908060060154908060070154908060080160009054906101000a900460ff16908060080160019054906101000a900460ff16908060080160029054906101000a900460ff16908060080160039054906101000a900467ffffffffffffffff1690508c565b806003816040516117759190613e1a565b908152602001604051809103902060080160019054906101000a900460ff166117d3576040517f08c379a00000000000000000000000000000000000000000000000000000000081526004016117ca90613e7d565b60405180910390fd5b813373ffffffffffffffffffffffffffffffffffffffff166003826040516117fb9190613e1a565b908152602001604051809103902060000160009054906101000a900473ffffffffffffffffffffffffffffffffffffffff1673ffffffffffffffffffffffffffffffffffffffff1614611883576040517f08c379a000000000000000000000000000000000000000000000000000000000815260040161187a90613f0f565b60405180910390fd5b82426003826040516118959190613e1a565b908152602001604051809103902060050154106118e7576040517f08c379a00000000000000000000000000000000000000000000000000000000081526004016118de906143da565b60405180910390fd5b60006003856040516118f99190613e1a565b9081526020016040518091039020600601549050600060038660405161191f9190613e1a565b90815260200160405180910390206006018190555060006003866040516119469190613e1a565b908152602001604051809103902060000160009054906101000a900473ffffffffffffffffffffffffffffffffffffffff1673ffffffffffffffffffffffffffffffffffffffff168260405161199b906142c1565b60006040518083038185875af1925050503d80600081146119d8576040519150601f19603f3d011682016040523d82523d6000602084013e6119dd565b606091505b5050905080611a21576040517f08c379a0000000000000000000000000000000000000000000000000000000008152600401611a1890614446565b60405180910390fd5b505050505050565b600082600381604051611a3c9190613e1a565b908152602001604051809103902060080160019054906101000a900460ff16611a9a576040517f08c379a0000000000000000000000000000000000000000000000000000000008152600401611a9190613e7d565b60405180910390fd5b600384604051611aaa9190613e1a565b908152602001604051809103902060090160008473ffffffffffffffffffffffffffffffffffffffff1673ffffffffffffffffffffffffffffffffffffffff1681526020019081526020016000206003015491505092915050565b600080600090505b600660008473ffffffffffffffffffffffffffffffffffffffff1673ffffffffffffffffffffffffffffffffffffffff16815260200190815260200160002060000180549050811015611cb7576000600660008573ffffffffffffffffffffffffffffffffffffffff1673ffffffffffffffffffffffffffffffffffffffff1681526020019081526020016000206000018281548110611bb057611baf613f92565b5b906000526020600020018054611bc590613dac565b80601f0160208091040260200160405190810160405280929190818152602001828054611bf190613dac565b8015611c3e5780601f10611c1357610100808354040283529160200191611c3e565b820191906000526020600020905b815481529060010190602001808311611c2157829003601f168201915b5050505050905084604051602001611c569190613e1a565b6040516020818303038152906040528051906020012081604051602001611c7d9190613e1a565b604051602081830303815290604052805190602001201415611ca3578192505050611cbc565b508080611caf90614466565b915050611b0d565b809150505b92915050565b81600381604051611cd39190613e1a565b908152602001604051809103902060080160019054906101000a900460ff16611d31576040517f08c379a0000000000000000000000000000000000000000000000000000000008152600401611d2890613e7d565b60405180910390fd5b823373ffffffffffffffffffffffffffffffffffffffff16600382604051611d599190613e1a565b908152602001604051809103902060000160009054906101000a900473ffffffffffffffffffffffffffffffffffffffff1673ffffffffffffffffffffffffffffffffffffffff1614611de1576040517f08c379a0000000000000000000000000000000000000000000000000000000008152600401611dd890613f0f565b60405180910390fd5b82600385604051611df29190613e1a565b90815260200160405180910390206004016000828254611e12919061423a565b9250508190555050505050565b82600381604051611e309190613e1a565b908152602001604051809103902060080160019054906101000a900460ff16611e8e576040517f08c379a0000000000000000000000000000000000000000000000000000000008152600401611e8590613e7d565b60405180910390fd5b833373ffffffffffffffffffffffffffffffffffffffff16600382604051611eb69190613e1a565b908152602001604051809103902060000160009054906101000a900473ffffffffffffffffffffffffffffffffffffffff1673ffffffffffffffffffffffffffffffffffffffff1614611f3e576040517f08c379a0000000000000000000000000000000000000000000000000000000008152600401611f3590613f0f565b60405180910390fd5b600385604051611f4e9190613e1a565b9081526020016040518091039020600201548467ffffffffffffffff1610611fab576040517f08c379a0000000000000000000000000000000000000000000000000000000008152600401611fa2906144fb565b60405180910390fd5b826fffffffffffffffffffffffffffffffff16600386604051611fce9190613e1a565b9081526020016040518091039020600201819055505050505050565b60008167ffffffffffffffff161161200157600080fd5b6003826040516120119190613e1a565b9081526020016040518091039020600401548167ffffffffffffffff16111561206f576040517f08c379a000000000000000000000000000000000000000000000000000000000815260040161206690614567565b60405180910390fd5b60038260405161207f9190613e1a565b908152602001604051809103902060080160029054906101000a900460ff16158061217357506003826040516120b59190613e1a565b908152602001604051809103902060080160039054906101000a900467ffffffffffffffff1667ffffffffffffffff16816003846040516120f69190613e1a565b908152602001604051809103902060090160003373ffffffffffffffffffffffffffffffffffffffff1673ffffffffffffffffffffffffffffffffffffffff16815260200190815260200160002060010160159054906101000a900467ffffffffffffffff166121669190614587565b67ffffffffffffffff1611155b6121b2576040517f08c379a00000000000000000000000000000000000000000000000000000000081526004016121a990614637565b60405180910390fd5b60006003836040516121c49190613e1a565b9081526020016040518091039020600201548267ffffffffffffffff166121eb9190614657565b9050806fffffffffffffffffffffffffffffffff16341015612242576040517f08c379a0000000000000000000000000000000000000000000000000000000008152600401612239906146ed565b60405180910390fd5b6003836040516122529190613e1a565b908152602001604051809103902060090160003373ffffffffffffffffffffffffffffffffffffffff1673ffffffffffffffffffffffffffffffffffffffff16815260200190815260200160002060010160149054906101000a900460ff1661254c5760016003846040516122c79190613e1a565b908152602001604051809103902060090160003373ffffffffffffffffffffffffffffffffffffffff1673ffffffffffffffffffffffffffffffffffffffff16815260200190815260200160002060010160146101000a81548160ff021916908315150217905550336003846040516123409190613e1a565b908152602001604051809103902060090160003373ffffffffffffffffffffffffffffffffffffffff1673ffffffffffffffffffffffffffffffffffffffff16815260200190815260200160002060010160006101000a81548173ffffffffffffffffffffffffffffffffffffffff021916908373ffffffffffffffffffffffffffffffffffffffff1602179055506003836040516123df9190613e1a565b9081526020016040518091039020600a01805490506003846040516124049190613e1a565b908152602001604051809103902060090160003373ffffffffffffffffffffffffffffffffffffffff1673ffffffffffffffffffffffffffffffffffffffff168152602001908152602001600020600001819055506003836040516124699190613e1a565b9081526020016040518091039020600a01339080600181540180825580915050600190039060005260206000200160009091909190916101000a81548173ffffffffffffffffffffffffffffffffffffffff021916908373ffffffffffffffffffffffffffffffffffffffff1602179055508167ffffffffffffffff166003846040516124f69190613e1a565b908152602001604051809103902060090160003373ffffffffffffffffffffffffffffffffffffffff1673ffffffffffffffffffffffffffffffffffffffff168152602001908152602001600020600301819055505b8160038460405161255d9190613e1a565b908152602001604051809103902060090160003373ffffffffffffffffffffffffffffffffffffffff1673ffffffffffffffffffffffffffffffffffffffff16815260200190815260200160002060010160158282829054906101000a900467ffffffffffffffff166125d09190614587565b92506101000a81548167ffffffffffffffff021916908367ffffffffffffffff1602179055508167ffffffffffffffff166003846040516126119190613e1a565b908152602001604051809103902060090160003373ffffffffffffffffffffffffffffffffffffffff1673ffffffffffffffffffffffffffffffffffffffff1681526020019081526020016000206003016000828254612671919061423a565b92505081905550806003846040516126899190613e1a565b908152602001604051809103902060090160003373ffffffffffffffffffffffffffffffffffffffff1673ffffffffffffffffffffffffffffffffffffffff16815260200190815260200160002060020160008282829054906101000a90046fffffffffffffffffffffffffffffffff16612704919061470d565b92506101000a8154816fffffffffffffffffffffffffffffffff02191690836fffffffffffffffffffffffffffffffff1602179055508167ffffffffffffffff166003846040516127559190613e1a565b908152602001604051809103902060040160008282546127759190613f5e565b925050819055508060038460405161278d9190613e1a565b908152602001604051809103902060090160003373ffffffffffffffffffffffffffffffffffffffff1673ffffffffffffffffffffffffffffffffffffffff16815260200190815260200160002060020160008282829054906101000a90046fffffffffffffffffffffffffffffffff16612808919061470d565b92506101000a8154816fffffffffffffffffffffffffffffffff02191690836fffffffffffffffffffffffffffffffff160217905550806fffffffffffffffffffffffffffffffff166003846040516128619190613e1a565b90815260200160405180910390206006016000828254612881919061423a565b92505081905550600061289584843361300c565b9050806003856040516128a89190613e1a565b908152602001604051809103902060090160003373ffffffffffffffffffffffffffffffffffffffff1673ffffffffffffffffffffffffffffffffffffffff16815260200190815260200160002060040181905550600660003373ffffffffffffffffffffffffffffffffffffffff1673ffffffffffffffffffffffffffffffffffffffff16815260200190815260200160002060000184908060018154018082558091505060019003906000526020600020016000909190919091509080519060200190612978929190613135565b5080600660003373ffffffffffffffffffffffffffffffffffffffff1673ffffffffffffffffffffffffffffffffffffffff168152602001908152602001600020600101856040516129ca9190613e1a565b908152602001604051809103902081905550816fffffffffffffffffffffffffffffffff16341115612ac15760003373ffffffffffffffffffffffffffffffffffffffff16836fffffffffffffffffffffffffffffffff1634612a2d9190613f5e565b604051612a39906142c1565b60006040518083038185875af1925050503d8060008114612a76576040519150601f19603f3d011682016040523d82523d6000602084013e612a7b565b606091505b5050905080612abf576040517f08c379a0000000000000000000000000000000000000000000000000000000008152600401612ab6906147c5565b60405180910390fd5b505b3373ffffffffffffffffffffffffffffffffffffffff167f6d0598831047f50508c3bf6a106db26bd6f8782df0ab21f8df187b556ec4cb1b85604051612b079190613d5b565b60405180910390a250505050565b600060038383604051612b29929190614091565b908152602001604051809103902060090160003373ffffffffffffffffffffffffffffffffffffffff1673ffffffffffffffffffffffffffffffffffffffff16815260200190815260200160002060040154905092915050565b60038787604051612b95929190614091565b908152602001604051809103902060080160019054906101000a900460ff1615612bf4576040517f08c379a0000000000000000000000000000000000000000000000000000000008152600401612beb90614857565b60405180910390fd5b60008511612c37576040517f08c379a0000000000000000000000000000000000000000000000000000000008152600401612c2e906148e9565b60405180910390fd5b600560009054906101000a900460ff1660ff16851115612c8c576040517f08c379a0000000000000000000000000000000000000000000000000000000008152600401612c8390614955565b60405180910390fd5b428111612cce576040517f08c379a0000000000000000000000000000000000000000000000000000000008152600401612cc5906149c1565b60405180910390fd5b600160038888604051612ce2929190614091565b908152602001604051809103902060080160016101000a81548160ff021916908315150217905550868660038989604051612d1e929190614091565b90815260200160405180910390206001019190612d3c9291906131bb565b508460038888604051612d50929190614091565b9081526020016040518091039020600401819055508360038888604051612d78929190614091565b9081526020016040518091039020600201819055508160038888604051612da0929190614091565b908152602001604051809103902060080160036101000a81548167ffffffffffffffff021916908367ffffffffffffffff1602179055508260038888604051612dea929190614091565b908152602001604051809103902060080160026101000a81548160ff0219169083151502179055503360038888604051612e25929190614091565b908152602001604051809103902060000160006101000a81548173ffffffffffffffffffffffffffffffffffffffff021916908373ffffffffffffffffffffffffffffffffffffffff1602179055508060038888604051612e87929190614091565b90815260200160405180910390206005018190555060048054905060038888604051612eb4929190614091565b9081526020016040518091039020600701819055506004878790918060018154018082558091505060019003906000526020600020016000909192909192909192909192509190612f069291906131bb565b503373ffffffffffffffffffffffffffffffffffffffff167fb2e9851b3527256f8bfedacf65268434ed500df0baf519807424645da4462f528888604051612f4f929190614a0e565b60405180910390a250505050505050565b60048181548110612f7057600080fd5b906000526020600020016000915090508054612f8b90613dac565b80601f0160208091040260200160405190810160405280929190818152602001828054612fb790613dac565b80156130045780601f10612fd957610100808354040283529160200191613004565b820191906000526020600020905b815481529060010190602001808311612fe757829003601f168201915b505050505081565b60008084848460405160200161302493929190614ab0565b604051602081830303815290604052805190602001209050809150509392505050565b50805461305390613dac565b6000825580601f106130655750613084565b601f0160209004906000526020600020908101906130839190613241565b5b50565b50805460008255906000526020600020908101906130a59190613241565b50565b8280546130b490613dac565b90600052602060002090601f0160209004810192826130d65760008555613124565b82601f106130e75780548555613124565b8280016001018555821561312457600052602060002091601f016020900482015b82811115613123578254825591600101919060010190613108565b5b5090506131319190613241565b5090565b82805461314190613dac565b90600052602060002090601f01602090048101928261316357600085556131aa565b82601f1061317c57805160ff19168380011785556131aa565b828001600101855582156131aa579182015b828111156131a957825182559160200191906001019061318e565b5b5090506131b79190613241565b5090565b8280546131c790613dac565b90600052602060002090601f0160209004810192826131e95760008555613230565b82601f1061320257803560ff1916838001178555613230565b82800160010185558215613230579182015b8281111561322f578235825591602001919060010190613214565b5b50905061323d9190613241565b5090565b5b8082111561325a576000816000905550600101613242565b5090565b600081519050919050565b600082825260208201905092915050565b6000819050602082019050919050565b600081519050919050565b600082825260208201905092915050565b60005b838110156132c45780820151818401526020810190506132a9565b838111156132d3576000848401525b50505050565b6000601f19601f8301169050919050565b60006132f58261328a565b6132ff8185613295565b935061330f8185602086016132a6565b613318816132d9565b840191505092915050565b600061332f83836132ea565b905092915050565b6000602082019050919050565b600061334f8261325e565b6133598185613269565b93508360208202850161336b8561327a565b8060005b858110156133a757848403895281516133888582613323565b945061339383613337565b925060208a0199505060018101905061336f565b50829750879550505050505092915050565b600060208201905081810360008301526133d38184613344565b905092915050565b6000604051905090565b600080fd5b600080fd5b600080fd5b600080fd5b7f4e487b7100000000000000000000000000000000000000000000000000000000600052604160045260246000fd5b613431826132d9565b810181811067ffffffffffffffff821117156134505761344f6133f9565b5b80604052505050565b60006134636133db565b905061346f8282613428565b919050565b600067ffffffffffffffff82111561348f5761348e6133f9565b5b613498826132d9565b9050602081019050919050565b82818337600083830152505050565b60006134c76134c284613474565b613459565b9050828152602081018484840111156134e3576134e26133f4565b5b6134ee8482856134a5565b509392505050565b600082601f83011261350b5761350a6133ef565b5b813561351b8482602086016134b4565b91505092915050565b60006020828403121561353a576135396133e5565b5b600082013567ffffffffffffffff811115613558576135576133ea565b5b613564848285016134f6565b91505092915050565b6000819050919050565b6135808161356d565b82525050565b600060208201905061359b6000830184613577565b92915050565b6135aa8161356d565b81146135b557600080fd5b50565b6000813590506135c7816135a1565b92915050565b6000602082840312156135e3576135e26133e5565b5b60006135f1848285016135b8565b91505092915050565b600073ffffffffffffffffffffffffffffffffffffffff82169050919050565b6000613625826135fa565b9050919050565b6136358161361a565b82525050565b600082825260208201905092915050565b60006136578261328a565b613661818561363b565b93506136718185602086016132a6565b61367a816132d9565b840191505092915050565b60008115159050919050565b61369a81613685565b82525050565b600067ffffffffffffffff82169050919050565b6136bd816136a0565b82525050565b6000610180820190506136d9600083018f61362c565b81810360208301526136eb818e61364c565b90506136fa604083018d613577565b613707606083018c613577565b613714608083018b613577565b61372160a083018a613577565b61372e60c0830189613577565b61373b60e0830188613577565b613749610100830187613691565b613757610120830186613691565b613765610140830185613691565b6137736101608301846136b4565b9d9c50505050505050505050505050565b600060ff82169050919050565b61379a81613784565b82525050565b60006020820190506137b56000830184613791565b92915050565b600080fd5b600080fd5b60008083601f8401126137db576137da6133ef565b5b8235905067ffffffffffffffff8111156137f8576137f76137bb565b5b602083019150836001820283011115613814576138136137c0565b5b9250929050565b60008060208385031215613832576138316133e5565b5b600083013567ffffffffffffffff8111156138505761384f6133ea565b5b61385c858286016137c5565b92509250509250929050565b600081519050919050565b600082825260208201905092915050565b6000819050602082019050919050565b600061389f826135fa565b9050919050565b6138af81613894565b82525050565b60006138c183836138a6565b60208301905092915050565b6000602082019050919050565b60006138e582613868565b6138ef8185613873565b93506138fa83613884565b8060005b8381101561392b57815161391288826138b5565b975061391d836138cd565b9250506001810190506138fe565b5085935050505092915050565b6000602082019050818103600083015261395281846138da565b905092915050565b61396381613784565b811461396e57600080fd5b50565b6000813590506139808161395a565b92915050565b60006020828403121561399c5761399b6133e5565b5b60006139aa84828501613971565b91505092915050565b600060e08201905081810360008301526139cd818a61364c565b90506139dc6020830189613577565b6139e96040830188613577565b6139f660608301876136b4565b613a036080830186613577565b613a1060a0830185613691565b613a1d60c0830184613691565b98975050505050505050565b613a3281613894565b8114613a3d57600080fd5b50565b600081359050613a4f81613a29565b92915050565b60008060408385031215613a6c57613a6b6133e5565b5b600083013567ffffffffffffffff811115613a8a57613a896133ea565b5b613a96858286016134f6565b9250506020613aa785828601613a40565b9150509250929050565b60008060408385031215613ac857613ac76133e5565b5b600083013567ffffffffffffffff811115613ae657613ae56133ea565b5b613af2858286016134f6565b9250506020613b03858286016135b8565b9150509250929050565b613b16816136a0565b8114613b2157600080fd5b50565b600081359050613b3381613b0d565b92915050565b60006fffffffffffffffffffffffffffffffff82169050919050565b613b5e81613b39565b8114613b6957600080fd5b50565b600081359050613b7b81613b55565b92915050565b600080600060608486031215613b9a57613b996133e5565b5b600084013567ffffffffffffffff811115613bb857613bb76133ea565b5b613bc4868287016134f6565b9350506020613bd586828701613b24565b9250506040613be686828701613b6c565b9150509250925092565b60008060408385031215613c0757613c066133e5565b5b600083013567ffffffffffffffff811115613c2557613c246133ea565b5b613c31858286016134f6565b9250506020613c4285828601613b24565b9150509250929050565b6000819050919050565b613c5f81613c4c565b82525050565b6000602082019050613c7a6000830184613c56565b92915050565b613c8981613685565b8114613c9457600080fd5b50565b600081359050613ca681613c80565b92915050565b600080600080600080600060c0888a031215613ccb57613cca6133e5565b5b600088013567ffffffffffffffff811115613ce957613ce86133ea565b5b613cf58a828b016137c5565b97509750506020613d088a828b016135b8565b9550506040613d198a828b016135b8565b9450506060613d2a8a828b01613c97565b9350506080613d3b8a828b01613b24565b92505060a0613d4c8a828b016135b8565b91505092959891949750929550565b60006020820190508181036000830152613d75818461364c565b905092915050565b7f4e487b7100000000000000000000000000000000000000000000000000000000600052602260045260246000fd5b60006002820490506001821680613dc457607f821691505b60208210811415613dd857613dd7613d7d565b5b50919050565b600081905092915050565b6000613df48261328a565b613dfe8185613dde565b9350613e0e8185602086016132a6565b80840191505092915050565b6000613e268284613de9565b915081905092915050565b7f4576656e74207769746820676976656e204944206e6f7420666f756e642e0000600082015250565b6000613e67601e8361363b565b9150613e7282613e31565b602082019050919050565b60006020820190508181036000830152613e9681613e5a565b9050919050565b7f53656e646572206973206e6f7420746865206f776e6572206f6620746869732060008201527f6576656e74000000000000000000000000000000000000000000000000000000602082015250565b6000613ef960258361363b565b9150613f0482613e9d565b604082019050919050565b60006020820190508181036000830152613f2881613eec565b9050919050565b7f4e487b7100000000000000000000000000000000000000000000000000000000600052601160045260246000fd5b6000613f698261356d565b9150613f748361356d565b925082821015613f8757613f86613f2f565b5b828203905092915050565b7f4e487b7100000000000000000000000000000000000000000000000000000000600052603260045260246000fd5b60008190508160005260206000209050919050565b60008154613fe381613dac565b613fed8186613dde565b9450600182166000811461400857600181146140195761404c565b60ff1983168652818601935061404c565b61402285613fc1565b60005b8381101561404457815481890152600182019150602081019050614025565b838801955050505b50505092915050565b60006140618284613fd6565b915081905092915050565b60006140788385613dde565b93506140858385846134a5565b82840190509392505050565b600061409e82848661406c565b91508190509392505050565b7f4576656e7420646561646c696e65206861732070617373656400000000000000600082015250565b60006140e060198361363b565b91506140eb826140aa565b602082019050919050565b6000602082019050818103600083015261410f816140d3565b9050919050565b7f5573657220646f6573206e6f74206f776e20616e79207469636b65747320746f60008201527f2074686973206576656e742e0000000000000000000000000000000000000000602082015250565b6000614172602c8361363b565b915061417d82614116565b604082019050919050565b600060208201905081810360008301526141a181614165565b9050919050565b7f5469636b65742073616c65206973206c6f636b65642c2077686963682064697360008201527f61626c6573206275796261636b2e000000000000000000000000000000000000602082015250565b6000614204602e8361363b565b915061420f826141a8565b604082019050919050565b60006020820190508181036000830152614233816141f7565b9050919050565b60006142458261356d565b91506142508361356d565b9250827fffffffffffffffffffffffffffffffffffffffffffffffffffffffffffffffff0382111561428557614284613f2f565b5b828201905092915050565b600081905092915050565b50565b60006142ab600083614290565b91506142b68261429b565b600082019050919050565b60006142cc8261429e565b9150819050919050565b7f52657475726e207472616e7366657220746f20637573746f6d6572206661696c60008201527f65642e0000000000000000000000000000000000000000000000000000000000602082015250565b600061433260238361363b565b915061433d826142d6565b604082019050919050565b6000602082019050818103600083015261436181614325565b9050919050565b7f4576656e7420646561646c696e6520686173206e6f742079657420706173736560008201527f6400000000000000000000000000000000000000000000000000000000000000602082015250565b60006143c460218361363b565b91506143cf82614368565b604082019050919050565b600060208201905081810360008301526143f3816143b7565b9050919050565b7f5769746864726177616c207472616e73666572206661696c65642e0000000000600082015250565b6000614430601b8361363b565b915061443b826143fa565b602082019050919050565b6000602082019050818103600083015261445f81614423565b9050919050565b60006144718261356d565b91507fffffffffffffffffffffffffffffffffffffffffffffffffffffffffffffffff8214156144a4576144a3613f2f565b5b600182019050919050565b7f5469636b6574207479706520646f6573206e6f742065786973742e0000000000600082015250565b60006144e5601b8361363b565b91506144f0826144af565b602082019050919050565b60006020820190508181036000830152614514816144d8565b9050919050565b7f4e6f7420656e6f756768207469636b65747320617661696c61626c652e000000600082015250565b6000614551601d8361363b565b915061455c8261451b565b602082019050919050565b6000602082019050818103600083015261458081614544565b9050919050565b6000614592826136a0565b915061459d836136a0565b92508267ffffffffffffffff038211156145ba576145b9613f2f565b5b828201905092915050565b7f507572636861736520737572706173736573206d61782070657220637573746f60008201527f6d65722e00000000000000000000000000000000000000000000000000000000602082015250565b600061462160248361363b565b915061462c826145c5565b604082019050919050565b6000602082019050818103600083015261465081614614565b9050919050565b600061466282613b39565b915061466d83613b39565b9250816fffffffffffffffffffffffffffffffff048311821515161561469657614695613f2f565b5b828202905092915050565b7f4e6f7420656e6f756768206574686572207761732073656e742e000000000000600082015250565b60006146d7601a8361363b565b91506146e2826146a1565b602082019050919050565b60006020820190508181036000830152614706816146ca565b9050919050565b600061471882613b39565b915061472383613b39565b9250826fffffffffffffffffffffffffffffffff0382111561474857614747613f2f565b5b828201905092915050565b7f52657475726e206f66206578636573732066756e647320746f2073656e64657260008201527f206661696c65642e000000000000000000000000000000000000000000000000602082015250565b60006147af60288361363b565b91506147ba82614753565b604082019050919050565b600060208201905081810360008301526147de816147a2565b9050919050565b7f476976656e206576656e7420494420697320616c726561647920696e2075736560008201527f2e00000000000000000000000000000000000000000000000000000000000000602082015250565b600061484160218361363b565b915061484c826147e5565b604082019050919050565b6000602082019050818103600083015261487081614834565b9050919050565b7f43616e6e6f7420637265617465206576656e742077697468207a65726f20746960008201527f636b65742074797065732e000000000000000000000000000000000000000000602082015250565b60006148d3602b8361363b565b91506148de82614877565b604082019050919050565b60006020820190508181036000830152614902816148c6565b9050919050565b7f4d6178696d756d207469636b657420416d6f756e742065786365656465642e00600082015250565b600061493f601f8361363b565b915061494a82614909565b602082019050919050565b6000602082019050818103600083015261496e81614932565b9050919050565b7f446561646c696e652063616e6e6f7420626520696e2074686520706173740000600082015250565b60006149ab601e8361363b565b91506149b682614975565b602082019050919050565b600060208201905081810360008301526149da8161499e565b9050919050565b60006149ed838561363b565b93506149fa8385846134a5565b614a03836132d9565b840190509392505050565b60006020820190508181036000830152614a298184866149e1565b90509392505050565b60008160c01b9050919050565b6000614a4a82614a32565b9050919050565b614a62614a5d826136a0565b614a3f565b82525050565b60008160601b9050919050565b6000614a8082614a68565b9050919050565b6000614a9282614a75565b9050919050565b614aaa614aa582613894565b614a87565b82525050565b6000614abc8286613de9565b9150614ac88285614a51565b600882019150614ad88284614a99565b60148201915081905094935050505056fea2646970667358221220dcaf2732fb44b2841ce608e77d4a1ffa12caea6f26fe321318b71dcb72b7ca7f64736f6c63430008090033",
  "linkReferences": {},
  "deployedLinkReferences": {}
}